:100000000C94720D0C949A0D0C949A0D0C949A0DFC
:100010000C949A0D0C949A0D0C949A0D0C94C21297
:100020000C949A0D0C949A0D0C949A0D0C949A0DB4
:100030000C949A0D0C949A0D0C949A0D0C949A0DA4
:100040000C94BD180C949A0D0C944A100C94241026
:100050000C949A0D0C949A0D0C949A0D0C949A0D84
:100060000C949A0D0C949A0D08000000BE9224493D
:10007000123EABAAAA2ABECDCCCC4C3E00000080DA
:10008000BEABAAAAAA3E00000000BF000000803F4D
:100090000000000000084178D3BB4387D1133D190D
:1000A0000E3CC3BD4282AD2B3E68EC8276BED98F3A
:1000B000E1A93E4C80EFFFBE01C4FF7F3F0000007E
:1000C0000000DC208810440280062802200244023E
:1000D00020022C0238022C0280062C023802280250
:1000E0002002440220022C0238022C021C02480288
:1000F0001C0228023C022C02800628023C022C0230
:100100001C02440220022C028006480280062802BB
:100110002002480280062C021C02400288062802A7
:10012000200244028406280284062C02380224029B
:10013000880628023C022802C82080102C0284066F
:10014000280238022C02200244021C022C028406DF
:100150004002200228023C022C02200244021C021F
:100160002C0238022C02200244021C022C028006BF
:100170004402200228023C02280224024402800693
:100180002802840628023C022C021C0248021C029F
:100190002C02800648021C022C02800644028406BF
:1001A00028022002440220022C0280064402E020A1
:1001B0006C102802840628023C0228022002400219
:1001C00024020C02A0065C02080228023C0228025B
:1001D00024023C02240228023C0228022002480297
:1001E0001C02280284064002240228023C02280243
:1001F00024023C02240228023C022802840628022F
:1002000084064402200228023C0228022002400206
:1002100024024002700628023802280288064002A2
:1002200084062802E0206C102802840628023C0282
:1002300028022002400224020C02A0065C020802EE
:1002400028023C02280224023C02240228023C022A
:100250002802200248021C022802840640022402CE
:1002600028023C02280224023C02240228023C020A
:1002700028028406280284064402200228023C0246
:10028000280220024002240240027006280238029E
:1002900028028806400284062802E0206C1028020A
:1002A000840628023C0228022002400224020C029A
:1002B000A0065C02080228023C02280224023C023A
:1002C000240228023C022802200248021C022802C2
:1002D00084064002240228023C02280224023C0236
:1002E000240228023C0228028406280284064402D2
:1002F000200228023C02280220024002240240027E
:100300007006280238022802880640028406280265
:10031000F820841024028C063C02240228023C02AD
:1003200028022402400284062802240240022002FD
:1003300024024002280224023C02240228023C0239
:100340002802240228029C062802240238022802DD
:1003500028023C0210023C024002200228026C06E5
:100360005C02840628022402400284062802240239
:1003700040028406280224024002240224023C0295
:10038000280224024002DC20881028028406400251
:10039000240228023C022802200244028406280289
:1003A00020024402200240022402280220023C02D1
:1003B000280228023C022802200244028406280265
:1003C000200248021C0228023C02280220024402A9
:1003D000200228028406440284064002F0016402DE
:1003E0007C064002080244028406280220024002E1
:1003F000240244022002280224024002C820841061
:100400004002880620022802400224022402400200
:1004100040026C0628023C0228022002400224020C
:1004200024024002240224024002240228023C0248
:100430002802840628023C02240224023C028C0684
:1004400024028806240240022402240240022402DC
:1004500028023C02200228024002880624022402CC
:100460004002240228023C02240288062402880654
:100470004002D820A8100402AC061C024402040268
:100480005C020C0240021C02A8060C0240021C0284
:1004900044020C02580208024402200240020802F0
:1004A0005C020802A40608025C020C023C02240260
:1004B00040020C02580200024802240240020802D4
:1004C0005C02080240022002A80608024002240240
:1004D000400208025C020C02A006040260020C0248
:1004E0003C022402A4060802C8209C100C02A406A8
:1004F0001C02440210025402080240022402A40614
:10050000100238022C023802100254021002380283
:100510002C0238020C0258020C023C022C029C06EF
:100520000802400228023C020C0258020C023C0263
:100530002C0238020C02A0062C029C061002380283
:100540002802A0060C023C021C0248020C02A00673
:100550002C029C0610029C06140298062C0253578B
:10056000494E47204F4E2F4F4646004A4554434F71
:100570004C4C204F4E2F4F4646004552524F2121A2
:1005800021004552524F2121210041522044455320
:100590004C494741444F004152204C494741444F48
:1005A00000000000E0000000000000E0000000008B
:1005B0000000E000000000000060000000000400F7
:1005C000E0040000000E00400C0000000700001CCA
:1005D00000000003802038000000018FFE3800007A
:1005E00000001FFE10000000003C0F800000000013
:1005F0007003C000000000E001E000000000E00027
:10060000E000000000C000E000000000C00060004A
:100610000000E8C00062E00000FCC00077E00000DD
:10062000B9C00061A0000000C0007000000000E040
:1006300000E000000000E000E000000000F001C069
:1006400000000000380380000000003E0F80000022
:1006500000001FFE10000000018FFC3000000003AE
:10066000C050780000000780001C0000000E004011
:100670000C0000000000C00000000000006000004E
:1006800000000000E0000000000000E000000000AA
:100690000000E000000000000000000007FE000075
:1006A000000000000020100020100020100020108A
:1006B00000202000204000278000200000200000B3
:1006C0000000000000000000000000000002000127
:1006D000FF0001020003800004E0001A3C00130C3C
:1006E0000011000011800010C00010C00038000090
:1006F00010000000000000000000000001C0000326
:10070000400000CC003F92000002003FFC000000CF
:10071000000000003F800000C00003400001C00056
:1007200000000000000000000000000000000000C9
:10073000000000030000030000030000030000337A
:100740000000330003330033330033330000000074
:100750000000000000000000000000000000000099
:100760000000000000000000000000000000003059
:100770000000300003300033300033300000000050
:100780000000000000000000000000000000000069
:100790000000000000000000000000000000000059
:1007A00000000000030000330000330000000000E0
:1007B0000000000000000000000038000668000F84
:1007C0001980A67240660040167F800F00000FBFA0
:1007D000807600C0A603400601C00F00000600009E
:1007E00000000000000000000003E00004300004EE
:1007F00010000208001F0F0020198060C18060C136
:10080000806601003C6200043C00061000021000FB
:1008100001F00000000000000000800001C00003A3
:1008200060000220000410000C18000808000808EE
:100830000008080008080008080006300003E0006F
:1008400001C00000000000000000C00000E0001037
:10085000E00014CA000CCE0007D40003E0000FEC47
:10086000001CDC001CCA0010C00001E00000C00039
:1008700000C00000000000000021E100121200048E
:100880008800090400680580080400040C00161A9A
:100890000033330001200001200001200000C000CF
:1008A00000000000000000000000C400012E000253
:1008B0001400040C0008040010220066798044280B
:1008C00080340B00140A0017FA0010020010020016
:1008D0001FFE000000000000000000000000003FBC
:1008E000FE0060030040010040010043E1004001C0
:1008F000003FFE00000000155400155400000000E9
:10090000000000000000000000FE80000000000762
:10091000FFC0000000003FFFF0000000007E00F874
:1009200000000000F8003C00000000E0000E0000A5
:100930000001C00007800000038000038000000762
:10094000800003C0000007000001C000000E00008E
:1009500000E000000E000000E000000C000000E0DD
:1009600000007C000000600003FC00000070000F2D
:10097000FC00000078001F800000007E001C0000CA
:1009800000007F0038000000000F807000000000B1
:1009900003C0F00000000001E0600000000000E083
:1009A000E00000000000F0E0000000000060E00057
:1009B0000000000070E0000000000070E000000097
:1009C0000000707000000000007070000000000067
:1009D000E0780000000000E01C0000000001C00EF4
:1009E0000000000007800FFFFFFFFFFF8007FFFFF1
:1009F000FFFFFE0000FFFFFFFFF800003B36FDF5A4
:100A00001E000000002A3A001FFB1E001010201AD2
:100A1000050E04201C381E781E780FF007E0E3C78F
:100A2000FFFFFFFFF3CF07E00FF01E781E781C38A2
:100A3000042018194B28080000380000380000383E
:100A4000000038000038000038000038000038008E
:100A5000003800003800003800FFFFFFFFFFFFFFF5
:100A6000FFFF003800003800003800003800003870
:100A7000000038000038000038000038000038005E
:100A8000003800080A0A0C02FB1F1F3E3E3C7C781F
:100A900078F0F00A050A0E0208FFC0FFC0FFC0FF91
:100AA000C0FFC00505050C0400F8F8F8F8F80D20A3
:100AB000401102FE00780078007800F000F000F0AD
:100AC00001E001E001E003C003C003C003C00780F0
:100AD000078007800F000F000F000E001E001E0091
:100AE0001E003C003C003C00780078007800780054
:100AF000F000F000141E5A17010103FC000FFF0064
:100B00001FFF803F0F803E07C07C03C07C03E07C5A
:100B100003E07C03E0F801F0F801F0F801F0F801DF
:100B2000F0F801F0F801F0F801F0F801F0F801F048
:100B3000F801F0F801F0F801F07C03E07C03E07CC0
:100B400003E07C03E03E07C03F0F801FFF800FFFE4
:100B50000003FC000C1E3C17040001F003F00FF032
:100B60003FF0FFF0FFF0FDF0F9F0E1F081F001F06F
:100B700001F001F001F001F001F001F001F001F0ED
:100B800001F001F001F001F001F001F001F001F0DD
:100B900001F001F001F0141E5A17010103FF0007D4
:100BA000FF801FFFC01FFFE03FFFF03F03F07E010B
:100BB000F07E01F07C01F00001F00003F00003F092
:100BC0000007E0000FE0000FC0001F80003F0000A2
:100BD000FE0001FC0003F80007F0000FE0003F807A
:100BE000007F0000FC0000FFFFF0FFFFF0FFFFF0C0
:100BF000FFFFF0FFFFF0131E5A17020107FC001F52
:100C0000FF003FFF807FFF807FFFC0FC0FC0FC071D
:100C1000C0F807C00007C00007C0000FC0003FC0F9
:100C200003FF8003FE0003FC0003FF0003FF8000BE
:100C30001FC00007E00007E00007E00003E0F8073E
:100C4000E0FC07E0FC07C07E0FC07FFF803FFF8015
:100C50001FFF000FFC00151E5A170100003F800007
:100C60003F80007F8000FF8000FF8001FF8001FF48
:100C70008003EF8003CF8007CF800F8F800F8F809E
:100C80001F0F801F0F803E0F803E0F807C0F80FC67
:100C90000F80F80F80FFFFF8FFFFF8FFFFF8FFFF5E
:100CA000F8FFFFF8000F80000F80000F80000F801A
:100CB000000F80000F80131E5A1702007FFFC07FB5
:100CC000FFC07FFFC07FFFC07FFFC07C00007C00B3
:100CD000007C00007C00007C00007C00007CFC00AC
:100CE0007DFF007FFF807FFFC07F0FE07E07E07CFD
:100CF00003E00003E00003E00003E00003E0000382
:100D0000E0F807E0FC07E0FC0FC07FFF807FFF807A
:100D10003FFE000FFC00141E5A17010103FE0007DE
:100D2000FF000FFF801FFFC03FFFC03F07E07E03B3
:100D3000E07E03E07C00007C0000FC0000F8000086
:100D4000F9FF00FBFF80FFFFC0FF0FE0FE07E0FEA2
:100D500003F0FC03F0FC03F0FC01F0FC01F07C0369
:100D6000F07C03F07E03E03F07E03FFFC01FFF8001
:100D70000FFF0003FE00131E5A170200FFFFE0FFE3
:100D8000FFE0FFFFE0FFFFE0FFFFE00007E00007FC
:100D9000E00007C0000FC0000FC0001F80001F80D0
:100DA000003F00003F00003F00007E00007E00008A
:100DB000FC0000FC0001FC0001F80001F80003F059
:100DC0000003F00007F00007E0000FE0000FC00094
:100DD0000FC0001FC000141E5A17010107FE001F9C
:100DE000FF803FFFC07FFFE07FFFE07E07E07C03E6
:100DF000E07C03E07C03E07C03E07E07E07F0FC043
:100E00003FFF800FFF0007FC001FFF003FFFC07F78
:100E10000FE07C07E0FC03F0FC03F0F801F0F803BE
:100E2000F0FC03F0FC03F0FE07F07FFFE03FFFC0A3
:100E30001FFF800FFF00141E5A17010103FC000F53
:100E4000FF001FFF803FFFC07FFFC07E07E0FC0761
:100E5000E0FC03E0FC03F0F803F0F803F0FC03F01F
:100E6000FC07F07C07F07F0FF03FFFF03FFDF01F25
:100E7000F9F007E1F00003F00003E00003E00003F5
:100E8000E07C07E07C07C07E0FC03FFF801FFF00B3
:100E90000FFE0007FC000514140C0500F8F8F8F824
:100EA000F800000000000000000000F8F8F8F8F872
:100EB00001060A00FE070136026820FFFE08FE0751
:100EC000FE0A0060221767808080808000801633D1
:100ED00063A0A0A00257675050F850F85050025736
:100EE000672070A07028702002576748A8502050D3
:100EF000A89002576740A0A040A89068261363807E
:100F000080801237672040808080402012376780C1
:100F10004020202040800355658850F850880355B4
:100F2000652020F82020113363604080055161F86E
:100F300011336340E040025767080810204080806A
:100F4000025767205088888850200257672060A089
:100F5000202020F8025767708808304080F8025738
:100F600067F808103008887002576710305090F802
:100F70001010025767F880B0C808887002576730B1
:100F80004080B0C88870025767F8081010204040B1
:100F900002576770888870888870025767708898D1
:100FA0006808106011376740E0400040E0401137AA
:100FB0006740E0400060408012476710204080405A
:100FC0002010045363F800F8124767804020102077
:100FD00040800257677088102020002002576770F9
:100FE0008898A8B0807002576720508888F8888851
:100FF000025767F04848704848F002576770888089
:1010000080808870025767F04848484848F0025787
:1010100067F88080F08080F8025767F88080F08061
:101020008080025767708880809888700257678830
:101030008888F8888888123767E04040404040E060
:10104000025767381010101090600257678890A000
:10105000C0A09088025767808080808080F8025707
:10106000678888D8A88888880257678888C8A89819
:10107000888802576770888888888870025767F068
:101080008888F08080800158687088888888A87077
:1010900008025767F08888F0A09088025767708828
:1010A0008070088870025767F820202020202002D6
:1010B000576788888888888870025767888888502A
:1010C000505020025767888888A8A8D88802576798
:1010D00088885020508888025767888850202020B0
:1010E00020025767F80810204080F8123767E08028
:1010F00080808080E00257678080402010080812BE
:101100003767E02020202020E0065363205088012C
:101110005161F8282262804002556570087888780D
:101120000257678080B0C888C8B002556570888053
:101130008870025767080868988898680255657033
:1011400088F88070025767304840F04040400057B0
:1011500067788888780888700257678080B0C88868
:1011600088881237674000C0404040E0104969104D
:10117000003010101090906002576780808890E0D7
:101180009088123767C04040404040E0025565D02B
:10119000A8A8A888025565B0C888888802556570D7
:1011A00088888870005767B0C888C8B080800057AA
:1011B0006768988898680808025565B0C88080807C
:1011C00002556570807008F00257674040F040405B
:1011D0004830025565888888986802556588885027
:1011E00050200255658888A8A8500255658850206F
:1011F000508800576788889868088870025565F895
:10120000102040F8124767304020C020403022179D
:101210006780808080808080124767C02040304097
:1012200020C006536348A890FFFFFFFFFFFFFFFFAA
:10123000FFFFFFFFFFFFFFFFFFFFFFFFFFFFFFFFBE
:10124000FFFFFFFFFFFFFFFFFF0A0060221767801D
:101250000080808080800157672078A0A0A078203F
:10126000025767304840E04048B0025565887050EA
:10127000708801586888885020F82020202217673D
:10128000808080008080800158687080E0904838BD
:101290000870193161A00257677088A8C8A88870C3
:1012A0001346667090B05000F0026565244890487F
:1012B00024144262F010154161F00257677088E80B
:1012C000C8C88870095161F816336340A0400256BF
:1012D000662020F82020F815456560902040F01524
:1012E0004565E0106010E028226240800156668863
:1012F0008888C8B08002576778E8E86828282825D9
:10130000116180202262408015356540C04040E078
:101310001346666090906000F0026565904824482E
:101320009001696940C04040E40C143C04016969C3
:1013300040C04040E81404081C015969C020402006
:10134000C8182878080257672000202040887002BB
:1013500058684020708888F8888802586810207083
:101360008888F888880258682050708888F88888AB
:1013700002586848B0708888F88888025868500019
:10138000708888F888880258682050708888F888A3
:10139000880267673C50909CF0909C005969708867
:1013A0008080808870204002586840F88080F080FB
:1013B00080F802586810F88080F08080F802586841
:1013C00020F88080F08080F802586850F88080F023
:1013D0008080F81238688040E040404040E0123899
:1013E000682040E040404040E012386840A0E040C3
:1013F000404040E0123868A000E040404040E00239
:101400005767F04848E84848F0025868285088C8AC
:10141000A898888802586840207088888888700258
:10142000586810207088888888700258682050702A
:1014300088888888700258682850708888888870E2
:1014400002586850007088888888700255658850F6
:10145000205088025767709898A8C8C870025868CA
:10146000402088888888887002586810208888887A
:1014700088887002586820500088888888700258D0
:10148000685000888888888870025868102088888A
:101490005020202002576780F088F080808002571B
:1014A00067708890A09088B002586840200070084B
:1014B0007888780258681020007008788878025878
:1014C00068205000700878887802586828500070AA
:1014D0000878887802576750007008788878025832
:1014E00068205020700878887802656578147C90B0
:1014F0007C005767708880887020400258684020C0
:10150000007088F880700258681020007088F88099
:10151000700258682050007088F880700257675039
:10152000007088F88070123868804000C0404040E9
:10153000E0123868408000C0404040E01238684007
:10154000A000C0404040E0123767A000C0404040CB
:10155000E0025767C0307088888870025868285049
:1015600000B0C88888880258684020007088888841
:1015700070025868102000708888887002586820AF
:1015800050007088888870025868285000708888D9
:1015900088700257675000708888887003556520EE
:1015A00000F800200255657898A8C8F002586840F5
:1015B00020008888889868025868102000888888E9
:1015C0009868025868205000888888986802576791
:1015D0005000888888986800596910208888986821
:1015E00008887000586880F0888888F080800059EA
:1015F0006950008888986808887000322EFEF719B4
:10160000000000002A3A001AFB19000E0D1A1604F9
:101610000D1CE03CF01CE00FC08784FFFCFFFCE7E2
:101620009C0FC01EE01CE03CF0084014153F220750
:1016300000006000006000006000006000006000CA
:10164000006000006000006000006000FFFFF0FF2D
:10165000FFF00060000060000060000060000060BB
:10166000000060000060000060000060000060009A
:101670000709090B02FB3E3C3C787870F0F0E0096A
:10168000050A0B0107FF80FF80FF80FF80FF8005B8
:1016900005050A0300F8F8F8F8F80B1C380F02FEED
:1016A00000E000E001C001C001C0038003800380AE
:1016B00003800700070007000E000E000E001C004C
:1016C0001C001C0038003800380038007000700022
:1016D0007000E000E000E00011194B13010107E089
:1016E000001FFC003FFE003C1E00780F00780F003A
:1016F000780F00F80F80F80F80F80F80F80F80F84F
:101700000F80F80F80F80F80F80F80F80F80F80F27
:1017100080F80F80780F00780F00780F003C1E00D3
:101720001FFC000FF80007E0000B19321303010340
:10173000E00FE01FE07FE0FFE0FBE0F3E0C3E00349
:10174000E003E003E003E003E003E003E003E00381
:10175000E003E003E003E003E003E003E003E00371
:10176000E011194B13010107F8001FFE001FFF00D5
:101770003FFF007E1F807C0F807C0F80000F800069
:101780000F80001F00001F00003E00007E0000FCD4
:101790000001F80003F00007E0000FC0003F000068
:1017A0007E0000FC0000FFFF80FFFF80FFFF80FF46
:1017B000FF801019321302011FF03FFC7FFEFFFE75
:1017C000F83EF81F001F001E007E07FC07F007F818
:1017D00007FC003E001F001F001FF81FF81FF81F26
:1017E000FC3E7FFE7FFC1FF80FE012194B13010136
:1017F000007E0000FE0000FE0001FE0003FE00036C
:10180000FE0007BE000FBE000F3E001E3E001E3E43
:10181000003C3E007C3E00783E00F03E00FFFFC0F2
:10182000FFFFC0FFFFC0FFFFC0003E00003E000002
:101830003E00003E00003E00003E0011194B130127
:1018400001FFFE00FFFE00FFFE00FFFE00F80000AB
:10185000F80000F80000F80000F9F000FFFC00FFBD
:10186000FE00FC3F00F81F00F80F00000F80000F83
:1018700080000F80000F00F80F00F81F00FC3F00F1
:101880007FFE007FFC003FF8000FE00011194B13B2
:10189000010103F0000FFC001FFE003FFF003E1F90
:1018A000007E0F807C00007C0000FC0000F8F80047
:1018B000FBFE00FFFE00FF1F00FE0F80FC0F80FC00
:1018C0000F80FC0F80FC0F807C0F807E0F807F1FBD
:1018D000003FFF001FFE000FFC0003F00010193254
:1018E000130201FFFFFFFFFFFFFFFF000F001F00BC
:1018F0001E003E003E007C007C00F800F800F00175
:10190000F001F003E003E007C007C00F800F800F75
:10191000801F001F0011194B13010107F0001FFC6D
:10192000007FFF007FFF00FC1F80F80F80F80F8012
:10193000780F007C1F003FFE000FF8001FF8003FEB
:10194000FE007C3F00F80F00F80F80F80F80F80FC2
:1019500080F80F80F80F80FC1F807FFF007FFF0062
:101960001FFC0007F00011194B13010107F0001FC5
:10197000FC003FFE007FFE007C3F00F81F00F81FC8
:1019800000F81F80F81F80F81F80F83F807C3F80A0
:101990007FFF803FEF800FCF80000F80001F00008F
:1019A0001F00F81F00783F007C7E003FFE003FFCD8
:1019B000001FF80007E0000512120B0500F8F8F808
:1019C000F8F80000000000000000F8F8F8F8F894BB
:1019D000209C1010029C062C0238021002540210A7
:1019E000023C0228029C061402340228023C021423
:1019F0000250021002380228023C020C0258021067
:101A0000029C0610025402100238022C0238021006
:101A10000254021002380228023C020C0258021042
:101A2000023802240240020C025802100238022836
:101A3000023C02100254021002380228023C02103A
:101A4000029C062C02FFE0FFD1AFFF32FFD0FFFE69
:101A5000FFE0FFD1AEFFD0FFFEFFE0FFD11002FF9D
:101A6000FEFFD0FFE0FFC1FFD1AED580A83FD3007D
:101A7000408D142002A1C8DA1281CFD9F1DB402EAB
:101A8000A4A6AFFFD0FFFE00000000240027002A1C
:101A90000000000000250028002B000000000800C6
:101AA0000201000003040700000000000000000025
:101AB0000000002300260029000404040404040498
:101AC00004020202020202030303030303010204ED
:101AD00008102040800102040810200102040810B0
:101AE0002000CD2811241FBECFEFD8E0DEBFCDBF30
:101AF00012E0A0E0B1E0E0EAFAE502C005900D9244
:101B0000AE32B107D9F725E0AEE2B2E001C01D92D6
:101B1000A436B207E1F71DE0C2E7DDE004C021977B
:101B2000FE010E94342DC137D107C9F70E94A419C4
:101B30000C944E2D0C940000FC01538D448D252FE8
:101B400030E0842F90E0821B930B541710F0CF9657
:101B5000089501970895FC01918D828D981761F089
:101B6000828DDF01A80FB11D5D968C91928D9F5FD4
:101B70009F73928F90E008958FEF9FEF0895FC017F
:101B8000918D828D981731F0828DE80FF11D858D32
:101B900090E008958FEF9FEF0895FC01918D228DC5
:101BA000892F90E0805C9F4F821B91098F7399274A
:101BB000089588E093E00E94CD0D21E0892B09F47F
:101BC00020E0822F0895FC01848DDF01A80FB11D54
:101BD000A35ABF4F2C91848D90E001968F73992763
:101BE000848FA689B7892C93A089B1898C91806450
:101BF0008C93938D848D981306C00288F389E02D11
:101C000080818F7D80830895EF92FF920F931F93C1
:101C1000CF93DF93EC0181E0888F9B8D8C8D98139F
:101C200005C0E889F989808185FD24C0F62E0B8DD9
:101C300010E00F5F1F4F0F731127E02E8C8DE812FD
:101C40000CC00FB607FCFACFE889F989808185FFBF
:101C5000F5CFCE010E94E30DF1CF8B8DFE01E80F91
:101C6000F11DE35AFF4FF0820B8FEA89FB898081D7
:101C7000806207C0EE89FF896083E889F9898081E5
:101C80008064808381E090E0DF91CF911F910F917C
:101C9000FF90EF900895CF93DF93EC01888D882318
:101CA000C9F0EA89FB89808185FD05C0A889B989C9
:101CB0008C9186FD0FC00FB607FCF5CF808185FFA4
:101CC000F2CFA889B9898C9185FFEDCFCE010E9412
:101CD000E30DE7CFDF91CF91089580E090E0892B6D
:101CE00029F00E94D90D81110C94000008950895E7
:101CF000DC011696ED91FC91179712968C91481B7A
:101D0000477081E090E001C0880F4A95EAF7E60F3E
:101D1000F11D3081222311F0832B02C08095832393
:101D200080830895FB014181DC0112962C9112976A
:101D3000421768F013962C911397241740F0608196
:101D400015962C91621718F424810C94780E08953E
:101D500080E008950B96FC01849108950A96FC0199
:101D600084910895FC01849108950E94B20E882305
:101D700021F0823011F083E0089586E00895FC019F
:101D8000E60FF11D849190E0982F88273196E49119
:101D90008E0F911D089568E00C94BF0E66E00C94C0
:101DA000BF0E089580E090E008958F929F92AF92C9
:101DB000BF92CF92DF92FF920F931F93CF93DF9347
:101DC00000D0CDB7DEB76C018B01F42E490120E1C4
:101DD000421709F467C0241700F13AE0431729F1CC
:101DE0008FE0481369C041E0C6010E94131740E02C
:101DF000B801C6010E940A1741E8B801C6010E9455
:101E00000117F4014081B801C6010E94011740E0AA
:101E1000B801C6010E94131708C1A1E14A1709F4CD
:101E200044C0B5E14B1791F047C0DB011496ED912A
:101E3000FC91159720E030E042E061E0099541E631
:101E40005AE1B801C6010E941C1736C0FB01A280EE
:101E5000B38049E55AE10E941C17D50114964C91B4
:101E6000406BB801C6010E94011741E0B801C601EC
:101E70000E940A17F50126813781D8011496ED9149
:101E8000FC911597D50115964C9166E0C601099510
:101E9000811102C080E0CAC040E0B801C6010E94C2
:101EA00013170AC040E55AE102C045E45AE1B801FF
:101EB000C6010E941C17B9C0D80112960D911C9141
:101EC0001397B2E3FB1609F474C0BF15B8F0E5E14F
:101ED000FE1609F47BC0F7E1FF1609F48DC024E17A
:101EE000F212A3C0D8011696ED91FC9117971596A2
:101EF0008C919F01280F311DC90160C036E4F31693
:101F000009F48AC087E4F81609F48AC0ABE3FA1230
:101F10008CC0F40181819381913029F0933031F4A8
:101F2000482F885004C048E0480F01C0482F21E0E6
:101F3000D80113963C91381708F420E031E0F801FD
:101F40005281451708F430E051E0481708F050E09E
:101F5000822F852B382319F4252309F466C0D40178
:101F60001296FC90913051F030F0923049F093305D
:101F700051F42FEF09C020E031E007C021E004C098
:101F800020E03FEF02C020E030E0F7FE08C0B401DF
:101F9000C8012A8339830E94920E39812A81F40173
:101FA0008081830F80838181820F8183FF0C69F799
:101FB0003CC0B401C8010E94920E37C01192E817CC
:101FC000F907E1F7C8010E94FA162FC0C8010E9464
:101FD000E416882309F45ECFD8011696ED91FC91A2
:101FE000179715968C919F01280F311DC9011192E9
:101FF000E817F907E1F719C0D4011C92F8018281B2
:1020000011968C9311978581815012968C9312971B
:10201000838113968C9309C0D80115968C9103C0C7
:10202000D80111968C91F401808381E00F900F907C
:10203000DF91CF911F910F91FF90DF90CF90BF90D4
:10204000AF909F908F9008951F920F920FB60F92AE
:1020500011242F933F934F935F936F937F938F93AD
:102060009F93AF93BF93EF93FF9388E093E00E9419
:10207000E30DFF91EF91BF91AF919F918F917F9170
:102080006F915F914F913F912F910F900FBE0F90E5
:102090001F9018951F920F920FB60F9211242F9335
:1020A0008F939F93EF93FF93E0911803F09119039F
:1020B0008081E0911E03F0911F0382FD12C0908188
:1020C000809121038F5F8F7320912203821751F03B
:1020D000E0912103F0E0E85FFC4F958F80932103AE
:1020E00001C08081FF91EF919F918F912F910F906F
:1020F0000FBE0F901F901895DB01ED91FC91099494
:10210000EF92FF920F931F93CF93DF931F92CDB760
:10211000DEB78C01DC011296ED90FC901397D196FE
:10212000ED91FC91D29782E0099520E030E04AE001
:10213000B701C8010E947C10F82ED801D196ED910C
:10214000FC91D29783E00995D801D196ED91FC914D
:10215000D29780E00995FF20A1F1F8016281738197
:102160009E012F5F3F4F46E4C8010E947C10898189
:10217000D8018C9312966D917C9113979E012F5FDD
:102180003F4F47E4C8010E947C108981F801818398
:102190006281738120E030E048E4C8010E947C1035
:1021A000D8011B968C931B9798012D5C3F4F12967C
:1021B0006D917C91139747E1C8010E947C1081E0EA
:1021C00001C080E00F90DF91CF911F910F91FF90A0
:1021D000EF9008950F93FC010150040F84A996A974
:1021E000941718F0081728F402C0081750F00417C5
:1021F00040F42150260F83A995A9961720F428179B
:1022000020F480E007C0281720F481E0261710F0A2
:10221000F8CF81E00F9108952F923F925F926F92D5
:102220007F928F929F92AF92BF92CF92DF92EF9266
:10223000FF920F931F93CF93DF931F92CDB7DEB71B
:102240001C01C62E142FD22EDC011496ED90FC90AA
:102250001597C7010E94B20E082FF1018481958164
:102260000E94B50E982E013019F48FE0A82E02C0FE
:10227000AA24AA94D10114968D919C9115970E943D
:10228000AE0E082FF101848195810E94AA0EB82E0E
:10229000D10114968D919C9115970E94CB0EB0E6BA
:1022A000BD1530F4009721F0E80EF91E01E611C0CB
:1022B000F101848195810E94CE0EF0E4FD1530F489
:1022C000009721F0E80EF91E01E403C021E1E20EBF
:1022D000F11CBD1480F4D10150961C925097539676
:1022E0001C92539754961C92549751961C92519756
:1022F00052961C92C7C0B01670F3892D90E0F7017A
:1023000024912F3F21F4FFEFEF1AFF0A5AC00D115D
:102310004FC0D10114968D919C9115970E94B20ED9
:1023200097012F5F3F4FF701882311F08230E1F4CE
:102330008491D10153968C935397F901249154962B
:102340002C935497F7013396E4915096EC93509761
:10235000F7013496E4915196EC935197F701359635
:10236000E4915296EC9320C08491982F9F709250E4
:10237000D10152969C93529782958F7051968C936F
:102380005197F9012491822F8F7054968C93549712
:1023900022952F7053962C935397F7013296E49120
:1023A000E295EF705096EC93E114F10479F46AC071
:1023B000F7013296E491EA219C012E0F311DE20EC5
:1023C000F31E0B1509F487CF0F5F99CFF1018481BC
:1023D00095810E94B50EB82ED10153969C905397CB
:1023E0005496DC90549751968C915197C80E529602
:1023F0009C919D0D512E591A0D2D292D452D6C2D79
:10240000C1010E94EA108823D1F1C7018B0D911DF3
:102410005C0187E0890DF82EF694F694F694D50CBD
:1024200041019CE1890E911C6F2C712C5D1439F1D6
:102430005C2D8501802F8A198F15E8F4F8018491AD
:10244000D10112966D917C9113975C965C935C9789
:102450005D965C925D975F961C925F975E968C93FB
:1024600094014BE3C10159830E947C100F5F1F4F01
:102470005981585FDFCFA60CB71C5394D7CFF10119
:10248000808901C080E00F90DF91CF911F910F9163
:10249000FF90EF90DF90CF90BF90AF909F908F9084
:1024A0007F906F905F903F902F900895CF92DF9232
:1024B000EF92FF920F931F93CF93DF931F92CDB7AD
:1024C000DEB76C01DC01DC961C91DC97DB960C918D
:1024D0007C01B4E0EB0EF11CDC015996ED91FC910E
:1024E0005A97C70169830995482F410F2981602FA9
:1024F000C7010E940C11F60123AD082E000C990BA8
:10250000820F911D83AF81E090E00F90DF91CF911A
:102510001F910F91FF90EF90DF90CF9008958F92D1
:102520009F92AF92BF92CF92DF92EF92FF926B0198
:102530007C010E948C184B015C0184E0C81AD10810
:10254000E108F108C80CD91CEA1CFB1CC814D9040A
:10255000EA04FB0438F40E948C1886169706A80635
:10256000B906C8F30E948C186C157D058E059F0571
:10257000C8F3FF90EF90DF90CF90BF90AF909F9007
:102580008F9008951F920F920FB60F9211242F93E0
:102590003F934F935F936F937F938F939F93AF93EB
:1025A000BF93CF93DF93EF93FF932091A60330E087
:1025B000F901E556F54E8491F901E353F54ED491B6
:1025C000F901E754F54EC491CC23A1F081110E948A
:1025D0008C17EC2FF0E0EE0FFF1FE155F54EA591A3
:1025E000B491EC91ED2331E020E009F430E0832F49
:1025F000922F02C080E090E02091AA033091AB03BB
:102600002F5F3F4F3093AB032093AA032091A90380
:10261000253618F026E02093A5032091A503243049
:10262000D9F128F4223069F02330D9F060C0253088
:1026300009F453C0263009F05AC021E020937604F3
:1026400053C0009709F053C02091AA033091AB0307
:102650002436310508F443C0109276041092A90381
:102660001DC08130910509F042C0E091A90321E02D
:102670002E0F2093A903F0E02091AA033091AB0321
:10268000EE0FFF1FEB55FC4F308727831092AB03F3
:102690001092AA0324E029C00097B9F4E091A9039D
:1026A00021E02E0F2093A903F0E02091AA0330919E
:1026B000AB03EE0FFF1FEB55FC4F308727831092C3
:1026C000AB031092AA0323E010C02091AA0330911B
:1026D000AB032536310558F007C0009741F410923E
:1026E000AB031092AA0303C025E02093A503209119
:1026F000A8032223B9F0892B51F48091A7038823E2
:1027000021F08091A70361E009C02D9A0BC0809150
:10271000A703882331F08091A70360E00E94B517DA
:1027200001C02D98FF91EF91DF91CF91BF91AF91B3
:102730009F918F917F916F915F914F913F912F91D9
:102740000F900FBE0F901F901895CF92DF92EF92CF
:10275000FF92CF93DF93EC01072E000C880B990BAF
:102760000E94FF2A6B017C0120E030E040E45FE33F
:102770000E94FF2B20E030E048E452E40E94552AFA
:102780000E94C72AC617D707D4F020E030E040EAFD
:102790005FE3C701B6010E94FF2B20E030E048E470
:1027A00052E40E94552A20E030E040E85FE30E94B6
:1027B000E4290E94C72A21E06C177D070CF420E071
:1027C000822F90E0DF91CF91FF90EF90DF90CF903C
:1027D00008950F931F938091F00281110DC00E9404
:1027E000B1186093EC027093ED028093EE02909327
:1027F000EF0281E08093F0020E94B1180091EC0298
:102800001091ED022091EE023091EF02DC01CB013C
:10281000801B910BA20BB30B853F9140A105B10525
:1028200080F08FEC99E10E9421180E9476180E9496
:10283000B1186093EC027093ED028093EE029093D6
:10284000EF021F910F910895CF938091EB02C1E0A9
:102850008C278093EB02882379F061E08CE00E9462
:10286000B517C0932F02C0932E02C093EA021092B4
:102870000301109200010EC060E08CE00E94B517C9
:1028800010922F0210922E021092EA02C0930301BE
:10289000C0930001CF9108952EE93FE0009729F001
:1028A000F9013197F1F70197F9CF089590916205F9
:1028B000911104C0809362056093610508951F9390
:1028C000CF93DF9300D0CDB7DEB720ED37E03A836A
:1028D00029839091BC00982399F429813A81232B74
:1028E00051F480916305182F127081FD09C081E0B9
:1028F0000E94561406C029813A8121503109E7CF40
:1029000011E0812F0F900F90DF91CF911F910895CB
:10291000CF9384EA8093BC0061E080E80E945F145A
:10292000882359F08091B900887F883041F0803148
:1029300031F061E082E00E945614C0E01DC088E7DB
:102940008093BB0084E88093BC0062E080E80E9432
:102950005F14882391F380916305C82FC27081FDB5
:102960000AC08091B900887F883129F062E082E056
:102970000E94561401C0C1E08C2FCF91089584E9C4
:102980008093BC0064E080E10C945F14CF9380934B
:10299000BB0084E88093BC0063E080E80E945F1481
:1029A000C82F882389F080916305C82FC27081FDEC
:1029B0000AC08091B900887F883229F063E082E004
:1029C0000E94561401C0C1E08C2FCF91089510923F
:1029D0006205109261050895809363051092B90015
:1029E00084FF02C08CE001C088E48093B8000C949E
:1029F000E714CF93DF93FC0123A5222379F0EC01A8
:102A00000E948814811102C080E009C08EA181114A
:102A100080E40E94C6148823B9F31BA681E0DF91ED
:102A2000CF9108950F931F93CF93C42F89016330E3
:102A3000C1F050F4613081F0623009F048C0FC010F
:102A400046A321E023A743C0663011F1673079F136
:102A5000653009F03CC00EC0FC0186A50E94EC1454
:102A600036C0FC0116A221E023A7411130C00E940C
:102A7000BF142DC00E94F914811104C00E94BF141C
:102A800080E026C08C2F0E94C614811120C0F6CF92
:102A90000E94F914882391F3CC23C9F0F8018191A5
:102AA0008F010E94C614882349F3C150F5CF0E94BC
:102AB000F914882319F3CC2351F0F80184910E9472
:102AC000C614882329F00F5F1F4FC150F4CF81E057
:102AD000CF911F910F910895CF92DF92EF92FF92C5
:102AE0000F931F93CF93DF936C017A018B01C0E0AA
:102AF000D0E0CE15DF0589F0D8016D918D01D601AA
:102B0000ED91FC910190F081E02DC6010995892B92
:102B100011F47E0102C02196ECCFC701DF91CF9165
:102B20001F910F91FF90EF90DF90CF9008950E943A
:102B3000492DCF92DF92FF920F931F93CF93DF9394
:102B400000D0CDB7DEB7F82E062FE091B304F09198
:102B5000B4048EE994E049835A830995080F4981AA
:102B6000C42E5A81D52E10E0F60121916F01222347
:102B700049F0402F6F2D8EE994E00E940C11F80E61
:102B8000180FF2CF812F0F900F90DF91CF911F91EF
:102B90000F91FF90DF90CF9008957F928F929F9238
:102BA000AF92BF92CF92DF92EF92FF920F931F935B
:102BB000CF93DF93782EC62FE42ED22F5801242FE7
:102BC000220F220F220F0D2F462F682F8EE994E03F
:102BD0000E94EA10882349F1DC0F8E2C912CCD172E
:102BE00021F16501FE2C172DFF20D9F0F60184910B
:102BF0006091A0047091A1041093BA04C093BB0427
:102C00001092BD048093BC042AEB34E04BE38EE9C0
:102C100094E00E947C10FFEFCF1ADF0AFA94185F4D
:102C2000E3CFA80CB91CCF5FDACFDF91CF911F9112
:102C30000F91FF90EF90DF90CF90BF90AF909F905B
:102C40008F907F9008952091A2043091A3042817BB
:102C5000390709F444C09093A3048093A204009719
:102C600009F437C02091B504FC01211107C0359645
:102C7000E491E093B604FC013C960FC0213039F496
:102C80003F96E491E093B604FC01709606C03D9631
:102C9000E491E093B604FC013E9684918093B704DE
:102CA0008091B604082E000C990B2091B704821B6A
:102CB000910927FD93952091B804203441F0829F1B
:102CC000C001112426E0969587952A95E1F7809317
:102CD000B90488EA9EE09093B4048093B304089505
:102CE0008F929F92AF92BF92CF92DF92EF92FF921C
:102CF0000F931F93CF93DF93FC01C081D18120916B
:102D0000040330910503C217D3070CF04BC09E019A
:102D1000220F331FE0910203F0910303E20FF31F30
:102D200080809180C170DD27F1E0CF27209719F4D2
:102D300004E610E002C00CE91FEF7A015B016C01B0
:102D4000040F151FB801C4010E94A513892B99F423
:102D50000E0D1F1DB801C4010E94A513892B71F42B
:102D6000B8016E0D7F1DC4010E94A513892BE9F0E7
:102D700023E030E005C021E030E002C022E030E096
:102D8000F501808191810196821793073CF0F5014E
:102D900011821082F6018081918101969183808356
:102DA000CE0105C081E090E002C08FEF9FEFDF9180
:102DB000CF911F910F91FF90EF90DF90CF90BF9038
:102DC000AF909F908F900895FC0180819281980F21
:102DD00092832181921760F494819F5F9483938101
:102DE000890F821710F08FEF820F838381E008959F
:102DF00080E00895FC0112828081815083831482D7
:102E00000895DB011496ED91FC91159720E030E0D8
:102E100065E00994DB011496ED91FC91159720E093
:102E200030E062E00994DB011496ED91FC91159776
:102E300020E030E063E00994CF92DF92EF92FF92BE
:102E40000F931F93CF93DF938C017B016A0180E086
:102E5000F601C49181110BC0CF3F09F44CC04C2F37
:102E6000B701C8010E940117811143C049C0CF3F7B
:102E700011F44FEFF5CFCE3F09F444C0C03FC8F581
:102E8000C03E38F04C2F4F70B701C8010E940A179E
:102E900030C0C03D38F04C2F4F70B701C8010E94C0
:102EA000131727C0C03CF8F0D7011496ED91FC91A0
:102EB000159720E030E040E064E0C8010995C29534
:102EC000C07FCE5FD0E0CE010E944C14D701149693
:102ED000ED91FC91159720E030E041E064E0C801FD
:102EE0000995CE0104C0C7FD04C08C2F90E00E945C
:102EF0004C1480E001C081E0BFEFCB1ADB0AA8CF01
:102F000080E001C081E0DF91CF911F910F91FF9090
:102F1000EF90DF90CF900895833081F028F48130D6
:102F200099F08230A1F008958730A9F08830B9F087
:102F30008430D1F4809180008F7D03C08091800027
:102F40008F7780938000089584B58F7702C084B511
:102F50008F7D84BD08958091B0008F7703C08091EC
:102F6000B0008F7D8093B00008951F93CF93DF93BF
:102F7000282F30E0F901E556F54E8491F901E3532D
:102F8000F54ED491F901E754F54EC491CC23C9F024
:102F9000162F81110E948C17EC2FF0E0EE0FFF1F0F
:102FA000EF56F54EA591B4918FB7F894111105C065
:102FB0009C91ED2FE095E92302C0EC91ED2BEC9371
:102FC0008FBFDF91CF911F910895CF93DF9390E052
:102FD000FC01E353F54E2491FC01E754F54E849136
:102FE000882361F190E0880F991FFC01E957F54EA5
:102FF000C591D491FC01EF56F54EA591B4916111A4
:1030000009C09FB7F8948881209582238883EC912A
:103010002E230BC0623061F49FB7F8943881822F61
:10302000809583238883EC912E2B2C939FBF06C021
:103030008FB7F894E8812E2B28838FBFDF91CF9133
:103040000895EF92FF920F931F93CF93DF931F92F8
:10305000CDB7DEB7182F1092700061E08091960412
:1030600099830E94E51760E0809196040E94B5174D
:1030700081E08093B00089E08093B10082ED80937D
:10308000B30086E48093B400E12E9981F92E00E02C
:1030900010E0F701608171818091B00000FF02C0F3
:1030A0008F7D01C080628093B0006115710549F089
:1030B00080E090E0653071058105910510F00E9477
:1030C0008F120F5F1F4FF2E0EF0EF11C0B33110553
:1030D00001F78091B0008F7D8093B0000F90DF9159
:1030E000CF911F910F91FF90EF900895F89482E097
:1030F0008093B0008093B10094E69093B300109257
:10310000B200809370007894E5EAF3E08083148243
:10311000818160E00C94E5173FB7F89480915D05DC
:1031200090915E05A0915F05B091600526B5A89BC2
:1031300005C02F3F19F00196A11DB11D3FBFBA2F49
:10314000A92F982F8827820F911DA11DB11DBC01A9
:10315000CD0142E0660F771F881F991F4A95D1F76E
:1031600008952FB7F8946091590570915A05809190
:103170005B0590915C052FBF08951F920F920FB6CB
:103180000F9211242F933F938F939F93AF93BF93ED
:103190008091590590915A05A0915B05B0915C050D
:1031A0003091580523E0230F2D3720F40196A11DFF
:1031B000B11D05C026E8230F0296A11DB11D209365
:1031C00058058093590590935A05A0935B05B093D9
:1031D0005C0580915D0590915E05A0915F05B091C1
:1031E00060050196A11DB11D80935D0590935E055C
:1031F000A0935F05B0936005BF91AF919F918F91B0
:103200003F912F910F900FBE0F901F901895611551
:10321000710579F0FB0101900020E9F73197AF01CA
:10322000461B570BDC01ED91FC910280F381E02DF0
:10323000099480E090E008950F931F93CF93DF935C
:103240008C01C0E0D0E0F801EC0FFD1F6491662313
:1032500071F0E0910803F09109030190F081E02DF5
:1032600088E093E00995892B11F02196ECCF6BE271
:1032700072E088E093E00E9407198C0F9D1FDF9198
:10328000CF911F910F9108954F925F926F927F920D
:10329000EF92FF920F931F93CF93DF93CDB7DEB7DB
:1032A000A1970FB6F894DEBF0FBECDBF7C01FA0127
:1032B000CB0119A2223008F42AE08E010F5D1F4FC6
:1032C000422E512C612C712CBF01A30192010E944E
:1032D000B12CF901CA01015011096A3014F4605D82
:1032E00001C0695CD8016C93232B242B252B61F73B
:1032F000B801C7010E940719A1960FB6F894DEBF66
:103300000FBECDBFDF91CF911F910F91FF90EF9036
:103310007F906F905F904F900895CF93DF93482FE9
:1033200050E060E070E02AE088E093E00E944419F9
:10333000EC016BE272E088E093E00E9407198C0FC9
:103340009D1FDF91CF910895CF93DF93CDB7DEB767
:10335000C058D1090FB6F894DEBF0FBECDBF789428
:1033600084B5826084BD84B5816084BD85B582608A
:1033700085BD85B5816085BD80916E00816080933B
:103380006E001092810080918100826080938100A4
:1033900080918100816080938100809180008160B4
:1033A000809380008091B10084608093B10080910F
:1033B000B00081608093B00080917A008460809337
:1033C0007A0080917A00826080937A0080917A00FE
:1033D000816080937A0080917A00806880937A007F
:1033E0001092C100E0911803F091190382E08083EC
:1033F000E0911403F09115031082E0911603F0910F
:1034000017038FEC808310922003E0911C03F0914E
:103410001D0386E08083E0911A03F0911B038081F5
:1034200080618083E0911A03F0911B0380818860A2
:103430008083E0911A03F0911B0380818068808370
:10344000E0911A03F0911B0380818F7D80830E949D
:10345000761861E08CE00E94E51761E088E00E9448
:10346000E51761E087E00E94E51730E2232E312C5A
:1034700044244A94542C32018091E20281110DC0FF
:103480000E94B1186093DE027093DF028093E00225
:103490009093E10281E08093E2020E94B1180091D2
:1034A000DE021091DF022091E0023091E102DC01A6
:1034B000CB01801B910BA20BB30B0697A105B105A5
:1034C00008F4A0C32CEA33E03093030320930203F3
:1034D0008091A90390E09093050380930403809169
:1034E000760490E090930703809306038091A503F0
:1034F000853009F079C28091AE039091AF0388586E
:1035000091098D35910598F48091A903843049F48F
:103510008091B0039091B1038097479710F40C9479
:10352000D7238091A903843410F00C94BC2380919C
:10353000A9038A3108F451C08091AC039091AD0386
:10354000843F914068F4109201031092000340926E
:10355000FC025092FD026092FE027092FF025CC07B
:103560008091AE039091AF0385974B97B0F5E2EB56
:10357000F3E082E090E0C12CD12C7601AC014F5FEA
:103580005F4F2091A90330E04217530764F4DF0135
:1035900012972D913C91275031092730310510F4B5
:1035A0000C942324CA010197959587959093010364
:1035B000809300030C972CF41092010310920003E7
:1035C0000CC0C092FC02D092FD02E092FE02F0928A
:1035D000FF0284E090E00C9409258091A9038A31D0
:1035E00008F44FC08091AC039091AD0380329340BA
:1035F00008F4A9CF8091AE039091AF03C697869748
:1036000010F40C9442243DC0C092FC02D092FD0202
:10361000E092FE02F092FF028BE090E00C9409250C
:1036200020813181255231092B31310510F00C9464
:103630005424CC0CDD1CEE1CFF1C6894C0F80296D0
:103640003496AC014F5F5F4F2091A90330E04217E1
:10365000530754F4DF0112972D913C912C503109FE
:103660002B303105E8F2CA01019795958795909323
:103670000103809300030C973CF610920103109213
:1036800000038091A903823208F44FC08091AE03F9
:103690009091AF030697079708F047C0E2EBF3E07D
:1036A00082E090E0C12CD12C76019C012F5F3F4F2E
:1036B0004091A90350E024173507ECF4DF0112977D
:1036C0004D915C9111974E5151094731510510F0C0
:1036D0000C946324CC0CDD1CEE1CFF1C6894C0F819
:1036E000408151813496435051094530510510F4C1
:1036F0000296DBCFC90101979595879590930103B9
:103700008093000340972CF4109201031092000361
:103710000CC0C092FC02D092FD02E092FE02F09238
:10372000FF028CE090E00C940925E9961FAE1EAED6
:10373000E997E1E0F0E0FA83E9838091A9038D3015
:1037400008F46FC049E753E0BE0169587F4FCE01CE
:1037500001960E947016892B09F063C049E753E077
:10376000BE0169587F4FCE0101960E9470160197E5
:1037700009F057C049E753E0BE0169587F4FCE01B9
:1037800001960E947016892B09F04BC0812C912C58
:10379000540100E010E08091A90390E029813A8172
:1037A000281739075CF549E753E0BE0169587F4F98
:1037B000CE0101960E9470167C0149E753E0BE01DC
:1037C00069587F4FCE0101960E947016F1E0EF1606
:1037D000F10449F4892B29F5880C991CAA1CBB1CFF
:1037E000689480F808C0EF28E1F40197D1F4880CC0
:1037F000991CAA1CBB1C0F5F1F4FCDCF1093010358
:10380000009300038092FC029092FD02A092FE02BF
:10381000B092FF0221E030E03093F9022093F802E9
:10382000C3C0E9961FAE1EAEE99781E090E09A838F
:1038300089838091040390910503181619060CF0F2
:103840005BC0E0910203F091030382E090E09A8371
:1038500089838281938189974E9708F04DC083E0D8
:1038600090E09A838983848195810B970A9708F069
:1038700043C04CEB51E0BE0169587F4FCE01019629
:103880000E947016892BC1F54CEB51E0BE016958BE
:103890007F4FCE0101960E947016019769F5812C29
:1038A000912C540100E010E029813A8180910403B9
:1038B000909105032817390714F00C94AD244CEBB4
:1038C00051E0BE0169587F4FCE0101960E947016EB
:1038D0006C010330110511F00C9472244CEB51E093
:1038E000BE0169587F4FCE0101960E947016C8161E
:1038F000D90611F40C947224E0910203F0910303B1
:1039000082819381C697869710F00C94CA24848193
:1039100095814B97459710F00C94CA24DF011696B9
:103920007F0196ECE90EF11C20E030E040E050E031
:1039300060E070E080E090E00D911C9111970950DB
:1039400011090830110510F00C94CA2412960D913B
:103950001C911397015111090D30110510F00C94B1
:10396000BC2401E00E94FD2C21601496AE15BF0519
:1039700019F72093FC023093FD024093FE0250930E
:10398000FF0200E20E94182D2093FA023093FB02FE
:1039900085E090E09093F9028093F80280E390E054
:1039A00090930103809300034091FC025091FD022B
:1039B0006091FE027091FF022AE088E093E00E948D
:1039C00044196BE272E088E093E00E94071980914D
:1039D000FC029091FD029093DD028093DC0282E074
:1039E0008093A5031092A90310912F0210928B04CB
:1039F00010928C0410928D0410928E0480917704A2
:103A00009091780497FDE1C02EE1F894E091900444
:103A1000F0919104928180918F0480958923828313
:103A2000E0919304F09194049181809192048095A7
:103A300089238183E0919304F09194049281809191
:103A40009204809589238283E0919304F0919404F9
:103A5000918180919204892B8183E0919304F0916C
:103A6000940492818091920480958923828383E2D9
:103A700090E00197F1F7E0919304F0919404918123
:103A800080919204809589238183E0919304F09141
:103A90009404928180919204809589238283E0919D
:103AA0009004F0919104928180918F04892B8283FC
:103AB0007894E0919304F0919404309192044091B1
:103AC0007F04509180046091810470918204008190
:103AD000032380918B0490918C04A0918D04B0916C
:103AE0008E04011111C084179507A607B70760F46B
:103AF0000196A11DB11D80938B0490938C04A0931B
:103B00008D04B0938E04E3CF481759076A077B07EB
:103B100008F45BC0F894E0919304F09194049281CE
:103B200080919204892B8283E0919304F091940414
:103B3000918180919204892B8183E0919304F0918B
:103B40009404928180919204892B8283E091930462
:103B5000F0919404918180919204809589238183CE
:103B6000E0919304F0919404928180919204809565
:103B700089238283E0919004F09191049281809155
:103B80008F048095892382837894E0919304F09147
:103B900094043091920440917F045091800460918C
:103BA0008104709182040081032380918B049091A1
:103BB0008C04A0918D04B0918E04011130C784173C
:103BC0009507A607B70708F43CC780912F0218177E
:103BD00019F00E9424140CC08091DC029091DD0247
:103BE000977F0C9729F41092DD021092DC02F1CF3E
:103BF0000E94B1186093DE027093DF028093E002AE
:103C00009093E1028091DC029091DD024F9709F0E0
:103C100046C08091340281110DC00E94B11860939A
:103C2000300270933102809332029093330281E02C
:103C30008093340286E7E3E1F1E0DE011196019022
:103C40000D928A95E1F70E94B1180091300210910F
:103C500031022091320230913302DC01CB01801B12
:103C6000910BA20BB30B853F9140A105B10580F0EC
:103C7000CE0101960E9421180E9476180E94B11868
:103C8000609330027093310280933202909333023A
:103C900081E08093DB0287E995E00E941C19809106
:103CA000DC029091DD028F31984009F045C080918F
:103CB000400281110DC00E94B11860933C027093C4
:103CC0003D0280933E0290933F0281E08093400248
:103CD00086E7E9E8F1E0DE01119601900D928A9500
:103CE000E1F70E94B11800913C0210913D02209131
:103CF0003E0230913F02DC01CB01801B910BA20BF5
:103D0000B30B853F9140A105B10580F0CE0101962E
:103D10000E9421180E9476180E94B11860933C02FC
:103D200070933D0280933E0290933F021092DB021B
:103D30008AE895E00E941C198091DC029091DD02D6
:103D4000977F8B329105E9F5109104011E3108F03F
:103D50007CC180914C0281110DC00E94B11860930A
:103D600048027093490280934A0290934B0281E08B
:103D700080934C020E94B118C0904802D090490232
:103D8000E0904A02F0904B02DC01CB018C199D09B6
:103D9000AE09BF09853F9140A105B10580F082ECD5
:103DA00090E00E9421180E9476180E94B11860933A
:103DB00048027093490280934A0290934B021F5F1E
:103DC00040C08C32910509F03FC0109104011331BD
:103DD00008F43BC18091580281110DC00E94B118B6
:103DE0006093540270935502809356029093570249
:103DF00081E0809358020E94B118C0905402D09084
:103E00005502E0905602F0905702DC01CB018C196C
:103E10009D09AE09BF09853F9140A105B10580F01C
:103E200088E391E00E9421180E9476180E94B11840
:103E300060935402709355028093560290935702F8
:103E400011501093040101C10B9709F0FEC01091AD
:103E50000101123009F442C018F4113041F0ECC0F5
:103E6000133009F475C0143009F4AAC0E5C080917C
:103E7000640281110CC00E94B118609360027093BB
:103E800061028093620290936302109364020E9425
:103E9000B11800916002109161022091620230918C
:103EA0006302DC01CB01801B910BA20BB30B853F9E
:103EB0009140A105B10580F08EEA91E00E942118A1
:103EC0000E9476180E94B11860936002709361029C
:103ED000809362029093630281E037C08091700208
:103EE00081110DC00E94B11860936C0270936D0235
:103EF00080936E0290936F0281E0809370020E9423
:103F0000B11800916C0210916D0220916E023091F7
:103F10006F02DC01CB01801B910BA20BB30B853F21
:103F20009140A105B10580F084E292E00E94211841
:103F30000E9476180E94B11860936C0270936D0213
:103F400080936E0290936F0282E00E948D1978C078
:103F500080917C0281110DC00E94B118609378029B
:103F60007093790280937A0290937B0281E0809330
:103F70007C020E94B1180091780210917902209180
:103F80007A0230917B02DC01CB01801B910BA20BEA
:103F9000B30B853F9140A105B10580F08AE992E01D
:103FA0000E9421180E9476180E94B118609378022E
:103FB0007093790280937A0290937B0283E0C5CF5D
:103FC0008091880281110DC00E94B1186093840213
:103FD00070938502809386029093870281E080939C
:103FE00088020E94B11800918402109185022091EC
:103FF000860230918702DC01CB01801B910BA20B62
:10400000B30B853F9140A105B10580F080E193E0BD
:104010000E9421180E9476180E94B11860938402B1
:1040200070938502809386029093870284E00E94B9
:104030008D191092010104C082E895E00E941C19BC
:10404000809101018F5F809301018091DC0290914A
:10405000DD02977FC89709F084C0109102011230E9
:10406000E9F1133009F471C0113009F071C0809189
:10407000940281110CC00E94B11860939002709359
:1040800091028093920290939302109394020E9463
:10409000B1180091900210919102209192023091FA
:1040A0009302DC01CB01801B910BA20BB30B853F6C
:1040B0009140A105B10508F44FC086E893E00E9445
:1040C00021180E9476180E94B11860939002709394
:1040D000910280939202909393023EC08091A0023D
:1040E00081110DC00E94B11860939C0270939D02D3
:1040F00080939E0290939F0281E08093A0020E9491
:10410000B11800919C0210919D0220919E02309165
:104110009F02DC01CB01801B910BA20BB30B853FEF
:104120009140A105B105C0F08CEF93E00E942118E9
:104130000E9476180E94B11860939C0270939D02B1
:1041400080939E0290939F0207C01092020104C0C8
:104150008AE795E00E941C19809102018F5F80938D
:1041600002018091DC029091DD028E31910509F00F
:1041700043C08091AC0281110DC00E94B1186093C0
:10418000A8027093A9028093AA029093AB0281E0E7
:104190008093AC020E94B1180091A8021091A9026C
:1041A0002091AA023091AB02DC01CB01801B910B64
:1041B000A20BB30B853F9140A105B10580F082E7CA
:1041C00094E00E9421180E9476180E94B118609312
:1041D000A8027093A9028093AA029093AB02109256
:1041E000020183E08093010181E08093D9028BE694
:1041F00095E00E941C1940C08E319840E9F58091ED
:10420000B80281110DC00E94B1186093B40270937E
:10421000B5028093B6029093B70281E08093B80212
:104220000E94B1180091B4021091B5022091B6021B
:104230003091B702DC01CB01801B910BA20BB30BB9
:10424000853F9140A105B10580F088EE94E00E9481
:1042500021180E9476180E94B1186093B4027093DE
:10426000B5028093B6029093B70281E08093020179
:10427000809301011092D9028091DC029091DD02BD
:104280008E30910551F40E94E91381E08093D802A9
:104290008EE595E00E941C1907C08E30984021F4ED
:1042A0000E94E9131092D8028091C40281110DC0BE
:1042B0000E94B1186093C0027093C1028093C20241
:1042C0009093C30281E08093C4020E94B1180091D0
:1042D000C0021091C1022091C2023091C302DC01E0
:1042E000CB01801B910BA20BB30B893E9340A10520
:1042F000B10508F46EC0809198048E3008F08E509D
:104300008770806480937C0080917A0080648093C1
:104310007A0080917A0086FDFCCF20917800809110
:10432000790030E0382B032E000C440B550B60E075
:1043300070E48CE990E00E94D32CCA01B90160516D
:104340007742810991090E94FF2A0E94B72B6B01D5
:104350007C0123E73FE745E759E30E94FF2B2BEE63
:104360003FEF43E95AE30E94E4294B015C0129E550
:1043700037E44CEB53E3C701B6010E94FF2BA701C2
:1043800096010E94FF2BA70196010E94FF2B9B0123
:10439000AC01C501B4010E94E4299B01AC0160E0BD
:1043A00070E080E89FE30E94552A23E333E948E860
:1043B00053E40E94E3290E94CE2A6093DA020E940D
:1043C000B1186093C0027093C1028093C2029093AF
:1043D000C3028091D00281110DC00E94B118609378
:1043E000CC027093CD028093CE029093CF0281E0F5
:1043F0008093D0020E94B1180091CC021091CD029E
:104400002091CE023091CF02DC01CB01801B910BB9
:10441000A20BB30B893E9340A105B10550F00E9459
:10442000B1186093CC027093CD028093CE0290932A
:10443000CF0280910001882331F060E087E00E9484
:10444000B51761E005C061E087E00E94B51760E044
:1044500088E00E94B5171092DD021092DC02809174
:10446000D704811107C081E08093D7048EE994E0DE
:104470000E9480100091A0041091A104E091CF044B
:10448000F091D00482E00995E091CF04F091D0043E
:1044900081E0099520E030E044E1B8018EE994E044
:1044A0000E947C1021ED34E047E1B8018EE994E0F0
:1044B0000E947C10E091CF04F091D00480E0099537
:1044C00000E4F02E8CE1C82E90EBE92E26E6D22EE9
:1044D00037E3B32E45E6A42E8091DB02813009F448
:1044E00048C001EA15E023E247E061E188E00E946C
:1044F000CD1506EA18E020E143E060E18CE60E9479
:10450000CD158BEF99E00E942316B092D50482E37B
:104510008093D6044091DA0250E060E070E02AE037
:104520008AE994E00E94441980EB9EE00E942316E1
:104530003A822982E982AE014F5F5F4F68E18FE5E1
:104540000E949915A092D50488E18093D60469E26F
:1045500072E08AE994E00E940719809103018823A0
:1045600009F4D2C006E718E020E143E062E28CE6FD
:10457000C9C006E019E023E247E061E181E00E9462
:10458000CD158AEF95E10E942316F092D504C092D2
:10459000D6044091040150E060E070E02AE08AE92E
:1045A00094E00E94441980EB9EE00E9423163A8218
:1045B0002982E982AE014F5F5F4F68E082E60E9488
:1045C0009915D092D50488E08093D60469E272E010
:1045D0008AE994E00E94071906ED18E020E143E023
:1045E0006EEF8CE60E94CD158AEF95E10E942316AE
:1045F000F092D504F092D6044091DA0250E060E0E7
:1046000070E02AE08AE994E00E94441980EB9EE081
:104610000E942316AE014F5F5F4F6AE282E60E945E
:104620009915D092D5048AE28093D60469E272E0AB
:104630008AE994E00E94071906EA18E020E143E0C5
:1046400062E28CE60E94CD1580910301882341F03F
:1046500006E718E020E143E062E38CE60E94CD1516
:1046600080910201813039F406E418E020E143E052
:1046700060E080E011C0823039F406E118E020E10A
:1046800043E060E08AE008C0833041F406EE17E0C2
:1046900020E143E060E084E10E94CD158091D902E1
:1046A000882341F006EB17E020E143E060E08EE173
:1046B0000E94CD1580910101813019F406E817E0C0
:1046C0000EC0823019F406E517E009C0833019F4F2
:1046D00006E217E004C0843041F406EF16E020E162
:1046E00043E06EE08DE60E94CD158091D8028823CC
:1046F00019F006EC16E002C006E916E020E143E0FE
:1047000060E082E30E94CD15E091AC04F091AD042D
:10471000309719F08EE994E009950091A00410916A
:10472000A104E091CF04F091D00482E00995E091DA
:10473000CF04F091D00481E0099520E030E045E11C
:10474000B8018EE994E00E947C10982E882341F0F5
:1047500021ED34E047E1B8018EE994E00E947C103D
:10476000E091CF04F091D00480E009959110B4CE8F
:104770000E946D0E0C943C1A8091B0039091B1038D
:10478000825491098E9710F00C94971A80E090E073
:1047900040E050E0BA01FC01EE54FC4F2081318131
:1047A0002950310929303105F0F00C94971A809185
:1047B000B2039091B3030997099710F00C94911AE2
:1047C00010920103109200034092FC025092FD02ED
:1047D0006092FE027092FF02A3E0B0E0B093F90293
:1047E000A093F802E1C8FC01EC54FC4F2081318118
:1047F0002751310922313105C0F4440F551F661F7E
:10480000771F416004968038910529F630920103A4
:10481000209200034093FC025093FD026093FE023D
:104820007093FF0283E090E0F4C020813181265034
:1048300031092730310510F00C94971A440F551F99
:10484000661F771FDFCF20813181235131092F303F
:10485000310550F4CC0CDD1CEE1CFF1C6894C0F834
:10486000029634960C94BE1A208131812A50310967
:104870002930310510F00C94ED1ACC0CDD1CEE1C27
:10488000FF1CEECF8091B0039091B103C69786973D
:1048900010F00C94411BE4EBF3E083E090E0C12CBA
:1048A000D12C76010C94211B208131812C503109AF
:1048B0002A30310510F00C94411BCC0CDD1CEE1C91
:1048C000FF1C0C941F1B4D915C914C5051094B30B7
:1048D000510510F00C94951BCC0CDD1CEE1CFF1C3C
:1048E0000C94701B4CEB51E0BE0169587F4FCE0118
:1048F00001960E9470167C010330110571F44CEB97
:1049000051E0BE0169587F4FCE0101960E9470169A
:10491000E816F90611F00C947C1CC114D10461F462
:10492000EA94EF2811F00C947C1C880C991CAA1CAA
:10493000BB1C689480F80DC0CA94CD2811F00C946B
:104940007C1CEF2811F00C947C1C880C991CAA1C70
:10495000BB1C0F5F1F4F0C94541C1093010300935A
:1049600000038092FC029092FD02A092FE02B0929F
:10497000FF0282E090E04DC012960D911C911397BA
:10498000045011090530110528F401E00E94FD2CA6
:104990000C94B51C8091A903893340F082819381E6
:1049A000895791098335910508F413C28091A903B1
:1049B000823209F4E2C0828193818957910983355B
:1049C000910508F481C2828193818C549109C59725
:1049D00008F0DFC08091A903843009F0D5C084813C
:1049E00095818097479708F0CFC086819781099776
:1049F000099708F0C9C01092010310920003409279
:104A0000FC025092FD026092FE027092FF0287E06B
:104A100090E09093F9028093F8020C94D41C8417D0
:104A20009507A607B70708F0CAC80196A11DB11DD2
:104A300080938B0490938C04A0938D04B0938E0488
:104A4000B2C8215011F00C94051D0E94B118C090FD
:104A50008704D0908804E0908904F0908A04DC01F7
:104A6000CB018C199D09AE09BF09C0908304D09079
:104A70008404E0908504F0908604C816D906EA06FE
:104A8000FB0680F5C0908B04D0908C04E0908D04E0
:104A9000F0908E046091790470917A0480917B0487
:104AA00090917C04C616D706E806F90629F0C61AC6
:104AB000D70AE80AF90A03C0C12CD12C76010E945A
:104AC000FD2A2DEC3CEC4CEC5DE30E94FF2B0E9498
:104AD000C72ACB01770FAA0BBB0BC816D906EA066B
:104AE000FB06A0F180918B0490918C04A0918D0421
:104AF000B0918E044091790450917A0460917B04C6
:104B000070917C0484179507A607B70740F480933B
:104B1000790490937A04A0937B04B0937C04409131
:104B2000790450917A0460917B0470917C04841B19
:104B3000950BA60BB70B883B9B40A105B1050CF468
:104B400044C890912F0281E0892741C88FEF9FEFE1
:104B5000AFEFBFE08093790490937A04A0937B0435
:104B6000B0937C040E94B11860938704709388040A
:104B70008093890490938A04B5CF828193810A97A8
:104B8000099708F485C117CF8091A903843408F0F0
:104B9000FDC18091A903863460F1828193810C97D5
:104BA0000B9708F442C225C0D90112966D917C91F1
:104BB00013976E5171096731710508F06CC2D70106
:104BC000C601880F991FAA1FBB1F6C017D01689445
:104BD000C0F84E5F5F4F2C5F3F4F4534510509F4DD
:104BE0003FC2D9016D917C916C5071096B30710598
:104BF000D8F28091A903883578F182819381855814
:104C000091098B35910508F456C226C0BC016F5F2F
:104C10007F4FD8014D915C91475051094730510564
:104C200008F058C2220F331F216002960C5F1F4FFD
:104C30004091A90350E044505109841795070CF0A6
:104C400052C2A80142505109DA014D915C9149507C
:104C5000510948305105D0F28091A9038032E1F426
:104C60008281938106970697B8F48481958109978C
:104C7000099790F49F012A5F3F4FBF01625C7F4F0D
:104C8000C12CD12C7601D9014D915C91465051092E
:104C90004630510508F443C22091040330910503C6
:104CA000ED963FAF2EAFED972630310514F40C94FE
:104CB000EF1C8F010A5F1F4F65ECC62E6DE9D62EE3
:104CC0006CE1E62E61E8F62E83E090E0EB969FAF74
:104CD0008EAFEB97D8016D917C91F8013497A0804D
:104CE000B18080E090E00E94FD2AC358DF4F6883C6
:104CF00079838A839B83CD57D040B50180E090E0D3
:104D00000E94FD2A4B015C012DEC3CEC4CE45FE37E
:104D10000E94FF2B9B01AC01C358DF4F6881798152
:104D20008A819B81CD57D0400E94502A87FD1DC0AB
:104D30002DEC3CEC4CE45FE3C358DF4F6881798194
:104D40008A819B81CD57D0400E94FF2B9B01AC01F3
:104D5000C501B4010E94502AE82F880FFF0BEE27EF
:104D6000FF0FEE1FFF27319602C0E0E0F0E0A70141
:104D7000960163E971E080E091E00E94A12C6F014F
:104D8000FF0FEE08FF08C626D726E826F926EB9681
:104D9000EEADFFADEB973196EB96FFAFEEAFEB9735
:104DA0000E5F1F4FED962EAD3FADED97E217F30767
:104DB00009F090CFC092FC02D092FD02E092FE0278
:104DC000F092FF0230920103209200038FEF9FEFD9
:104DD00020CE84819581CA97899708F0E7CD9F01FD
:104DE0002A5F3F4FC12CD12C760143E050E0D9011E
:104DF0006D917C916A5071096930710508F0D6CDCA
:104E0000D90112966D917C911397665171096131A8
:104E1000710570F5D701C601880F991FAA1FBB1F26
:104E20006C017D016894C0F84E5F5F4F2C5F3F4F6F
:104E30004B335105E1F69F012A583F4FD9012D917F
:104E40003C912A5031092930310508F0AFCD2CE1D1
:104E500030E03093010320930003C092FC02D09213
:104E6000FD02E092FE02F092FF028AE090E0D1CDD6
:104E7000D90112966D917C91139766507109673034
:104E8000710508F093CDCC0CDD1CEE1CFF1CCCCFC3
:104E90002091A903CF01820F911D820F911DDC018A
:104EA00012978D919C910A97099708F084CD1092E2
:104EB0000103109200034092FC025092FD026092A6
:104EC000FE027092FF0266C18091A903813208F44C
:104ED0007ACD84819581CA97899708F074CD9F0116
:104EE0002A5F3F4FC12CD12C760143E050E0D9011D
:104EF0006D917C916A5071096930710508F063CD3C
:104F0000D90112966D917C911397665171096131A7
:104F1000710560F5D701C601880F991FAA1FBB1F35
:104F20006C017D016894C0F84E5F5F4F2C5F3F4F6E
:104F300043325105E1F69F012A5B3F4FD9012D9184
:104F40003C912A5031092930310508F03CCD20E14F
:104F500030E03093010320930003C092FC02D09212
:104F6000FD02E092FE02F092FF0214C1D9011296F6
:104F70006D917C911397665071096730710508F047
:104F800022CDCC0CDD1CEE1CFF1CCECF8481958184
:104F900089549109C39708F0FCCD9F012A5F3F4FC8
:104FA000BF016A577F4FC12CD12C7601D9014D9199
:104FB0005C91495051094930510508F0EACDD901B9
:104FC00012964D915C91139746515109413151050B
:104FD000E0F4D701C601880F991FAA1FBB1F6C01FF
:104FE0007D016894C0F82C5F3F4F26173707F1F614
:104FF0003092010320920003C092FC02D092FD0285
:10500000E092FE02F092FF0202CDD90112964D917C
:105010005C911397465051094730510508F0B9CDBE
:10502000CC0CDD1CEE1CFF1CDECF84819581099722
:10503000099708F0DECD868197818C974F9708F00D
:10504000D8CD8085918589974D9708F0D2CD9F0165
:10505000265F3F4FC12CD12C760145E050E0C1CDF9
:105060009F0126573F4FD9012D913C912C5031097A
:105070002B30310508F0BDCD3092010320920003A2
:10508000C092FC02D092FD02E092FE02F092FF027A
:1050900088E090E0BECCD90112966D917C91139777
:1050A000695071096930710508F0A3CDCC0CDD1C85
:1050B000EE1CFF1C8ECD84819581825491098E97C0
:1050C00008F0CACD8F01045C1F4F8DE190E020E015
:1050D00030E0AECDD8014D915C914851510942313B
:1050E0005105D0F0CB0101979595879590930103D9
:1050F000809300038A970CF4AFCDC901330FAA0B3C
:10510000BB0B8093FC029093FD02A093FE02B09330
:10511000FF0289E090E07DCC220F331F86CDD901BC
:1051200012964D915C9113974951510943315105A4
:1051300008F5D701C601880F991FAA1FBB1F6C0174
:105140007D016894C0F82C5F3F4F2617370709F0A0
:105150009ACD2EE030E03093010320930003C092FB
:10516000FC02D092FD02E092FE02F092FF028FE07C
:1051700090E04FCCD90112964D915C911397495014
:1051800051094930510508F087CDCC0CDD1CEE1CCF
:10519000FF1CD9CF86E090E03CCC10920B0310921C
:1051A0000A0388EE93E0A0E0B0E080930C039093B4
:1051B0000D03A0930E03B0930F0383E092E090934E
:1051C00009038093080385EC90E090931503809386
:1051D000140384EC90E0909317038093160380EC03
:1051E00090E0909319038093180381EC90E09093E2
:1051F0001B0380931A0382EC90E090931D0380932D
:105200001C0386EC90E090931F0380931E03109282
:105210002103109222031092230310922403109270
:105220009D0410929C0485E192E090939B048093EE
:105230009A041092D5041092D6041092D7041092BA
:10524000A3041092A2041092A5041092A404109238
:10525000A70481E08093A60482E28093A8041092C0
:10526000AD041092AC04E1ECF4E09FEF8EE08E0F01
:1052700091938E13FDCF81E08093BE0428EA3EE037
:105280003093B4042093B3048093B5041092B60411
:105290001092B70480E48093B8041092B90487E7B1
:1052A0009EE09093D0048093CF048DE091E09093A2
:1052B000A1048093A0041092CC048EE994E00E9493
:1052C000801081E292E090939B0480939A04109264
:1052D00099041092980483E090E09093970480934F
:1052E00096048BE08093A6031092A80381E090E0DF
:1052F000909378048093770486E391E090937E0402
:1053000080937D0480EE95E7A9E0B0E080937F0470
:1053100090938004A0938104B093820480E29EE481
:10532000A0E0B0E08093830490938404A09385046C
:10533000B093860461E084E00E94E51760E082E0BB
:105340000E94E51760E084E00E94B517E1EDFAE104
:10535000E491E0938F04EDEBFAE1E491F0E0EE0FDD
:10536000FF1FE155F54E85919491909391048093A0
:105370009004EFECFAE1E491E0939204EBEBFAE1B4
:10538000E491F0E0EE0FFF1FE155F54E8591949109
:1053900090939404809393048FEF9FEFAFEFBFE05F
:1053A0008093790490937A04A0937B04B0937C0457
:1053B0000E94B118609387047093880480938904D5
:1053C00090938A0408955058BB27AA270E94FB296E
:1053D0000C94752B0E94672B38F00E946E2B20F0E6
:1053E00039F49F3F19F426F40C94642B0EF4E095E5
:1053F000E7FB0C945E2BE92F0E94862B58F3BA171B
:10540000620773078407950720F079F4A6F50C94DA
:10541000A82B0EF4E0950B2EBA2FA02D0B01B9018D
:1054200090010C01CA01A0011124FF27591B99F01A
:10543000593F50F4503E68F11A16F040A22F232F26
:10544000342F4427585FF3CF469537952795A79576
:10545000F0405395C9F77EF41F16BA0B620B730B1D
:10546000840BBAF09150A1F0FF0FBB1F661F771F8E
:10547000881FC2F70EC0BA0F621F731F841F48F443
:10548000879577956795B795F7959E3F08F0B0CFCC
:105490009395880F08F09927EE0F979587950895B3
:1054A0000E943A2B08F481E008950E94692A0C9426
:1054B000752B0E946E2B58F00E94672B40F029F448
:1054C0005F3F29F00C945E2B51110C94A92B0C9486
:1054D000642B0E94862B68F39923B1F3552391F333
:1054E000951B550BBB27AA2762177307840738F053
:1054F0009F5F5F4F220F331F441FAA1FA9F335D0B0
:105500000E2E3AF0E0E832D091505040E695001C63
:10551000CAF72BD0FE2F29D0660F771F881FBB1F1D
:10552000261737074807AB07B0E809F0BB0B802DFB
:10553000BF01FF2793585F4F3AF09E3F510578F027
:105540000C945E2B0C94A92B5F3FE4F3983ED4F3AC
:10555000869577956795B795F7959F5FC9F7880FFB
:10556000911D9695879597F90895E1E0660F771F4D
:10557000881FBB1F621773078407BA0720F0621BDE
:10558000730B840BBA0BEE1F88F7E09508950E9409
:10559000CE2A6894B1110C94A92B08950E948E2BE9
:1055A00088F09F5798F0B92F9927B751B0F0E1F0E4
:1055B000660F771F881F991F1AF0BA95C9F714C094
:1055C000B13091F00E94A82BB1E008950C94A82B63
:1055D000672F782F8827B85F39F0B93FCCF38695CD
:1055E00077956795B395D9F73EF49095809570952A
:1055F00061957F4F8F4F9F4F0895E89409C097FBA7
:105600003EF490958095709561957F4F8F4F9F4F99
:105610009923A9F0F92F96E9BB279395F6958795DD
:1056200077956795B795F111F8CFFAF4BB0F11F4A0
:1056300060FF1BC06F5F7F4F8F4F9F4F16C0882347
:1056400011F096E911C0772321F09EE8872F762F7D
:1056500005C0662371F096E8862F70E060E02AF0BE
:105660009A95660F771F881FDAF7880F96958795AA
:1056700097F90895990F0008550FAA0BE0E8FEEF7F
:1056800016161706E807F907C0F012161306E40706
:10569000F50798F0621B730B840B950B39F40A26FF
:1056A00061F0232B242B252B21F408950A2609F4DD
:1056B000A140A6958FEF811D811D089597F99F67E1
:1056C00080E870E060E008959FEF80EC089500248A
:1056D0000A941616170618060906089500240A9457
:1056E00012161306140605060895092E0394000CDD
:1056F00011F4882352F0BB0F40F4BF2B11F460FF6C
:1057000004C06F5F7F4F8F4F9F4F089557FD905894
:10571000440F551F59F05F3F71F04795880F97FB75
:10572000991F61F09F3F79F087950895121613062F
:105730001406551FF2CF4695F1DF08C0161617065E
:105740001806991FF1CF8695710561050894089593
:10575000E894BB2766277727CB0197F9089516F0C1
:105760000C946C2C0C94642B68940C945E2B0E940B
:105770008E2BA8F39923C1F3AEF3DF93CF931F933E
:105780000F93FF92C92FDD2788232AF02197660FF8
:10579000771F881FDAF720E030E040E85FEB9FE3F7
:1057A000883920F0803E38F021968F770E94E429D6
:1057B000E8E6F0E004C00E94E429E5E9F0E00E9498
:1057C0007A2C8B01BE01EC01FB2E6F577109759588
:1057D000771F880B990B0E94FF2A28E132E741E3EB
:1057E0005FE30E94122CAF2D9801AE01FF900F9144
:1057F0001F91CF91DF910E94FB290C94752B0E9481
:10580000122C0C94752B0E94672B38F00E946E2B83
:1058100020F0952311F00C945E2B0C94642B112432
:105820000C94A92B0E94862B70F3959FC1F3950FC2
:1058300050E0551F629FF001729FBB27F00DB11D14
:10584000639FAA27F00DB11DAA1F649F6627B00DA4
:10585000A11D661F829F2227B00DA11D621F739F8D
:10586000B00DA11D621F839FA00D611D221F749F9B
:105870003327A00D611D231F849F600D211D822FE2
:10588000762F6A2F11249F5750409AF0F1F0882309
:105890004AF0EE0FFF1FBB1F661F771F881F915036
:1058A0005040A9F79E3F510580F00C945E2B0C945C
:1058B000A92B5F3FE4F3983ED4F3869577956795DF
:1058C000B795F795E7959F5FC1F7FE2B880F911D60
:1058D0009695879597F908959F3F31F0915020F460
:1058E000879577956795B795880F911D96958795BC
:1058F00097F90895DF93CF931F930F93FF92EF9241
:10590000DF927B018C01689406C0DA2EEF010E94C1
:10591000122CFE01E894A591259135914591559160
:10592000A6F3EF010E94FB29FE019701A801DA947A
:1059300069F7DF90EF90FF900F911F91CF91DF916A
:105940000895DB018F939F930E94F22CBF91AF913A
:10595000A29F800D911DA39F900DB29F900D1124C9
:105960000895A1E21A2EAA1BBB1BFD010DC0AA1FA0
:10597000BB1FEE1FFF1FA217B307E407F50720F0B8
:10598000A21BB30BE40BF50B661F771F881F991F33
:105990001A9469F760957095809590959B01AC017C
:1059A000BD01CF010895052E97FB1EF400940E94BF
:1059B000EA2C57FD07D00E94B12C07FC03D04EF40F
:1059C0000C94EA2C50954095309521953F4F4F4FC0
:1059D0005F4F089590958095709561957F4F8F4F9B
:1059E0009F4F08950E943A2DA59F900DB49F900D52
:1059F000A49F800D911D112408950F93083090F0FD
:105A0000982F872F762F652F542F432F322F222741
:105A10000850F4CF220F331F441F551F661F771FF6
:105A2000881F991F0A95B2F70F91089597FB10F8F8
:105A3000169400080F93083098F00850232F342F45
:105A4000452F562F672F782F892F902DF4CF05944F
:105A500097958795779567955795479537952795A6
:105A60000A95AAF70F910895EE0FFF1F0590F49184
:105A7000E02D0994A29FB001B39FC001A39F700DB8
:105A8000811D1124911DB29F700D811D1124911D46
:105A9000089581E090E0F8940C944E2DF894FFCF97
:105AA0000101010112084000000080D804D50E0554
:105AB000011215C82084102802A0061002380228FE
:105AC000023C020C02580210029C06100250021402
:105AD0000238022C0238020C025402140238022846
